{
  "contractName": "Counterpart",
  "abi": [
    {
      "inputs": [],
      "payable": false,
      "stateMutability": "nonpayable",
      "type": "constructor"
    },
    {
      "constant": true,
      "inputs": [],
      "name": "isInitialized",
      "outputs": [
        {
          "name": "",
          "type": "bool"
        }
      ],
      "payable": false,
      "stateMutability": "view",
      "type": "function"
    },
    {
      "constant": false,
      "inputs": [
        {
          "name": "co",
          "type": "address"
        },
        {
          "name": "amount",
          "type": "uint256"
        }
      ],
      "name": "addCounterpart",
      "outputs": [],
      "payable": false,
      "stateMutability": "nonpayable",
      "type": "function"
    },
    {
      "constant": false,
      "inputs": [
        {
          "name": "id",
          "type": "uint256"
        }
      ],
      "name": "removeCounterpart",
      "outputs": [],
      "payable": false,
      "stateMutability": "nonpayable",
      "type": "function"
    },
    {
      "constant": true,
      "inputs": [
        {
          "name": "id",
          "type": "uint256"
        }
      ],
      "name": "getCounterpart",
      "outputs": [
        {
          "name": "",
          "type": "address"
        },
        {
          "name": "",
          "type": "uint256"
        }
      ],
      "payable": false,
      "stateMutability": "view",
      "type": "function"
    }
  ],
  "bytecode": "0x6060604052341561000f57600080fd5b60016000806101000a81548160ff021916908315150217905550610579806100386000396000f300606060405260043610610062576000357c0100000000000000000000000000000000000000000000000000000000900463ffffffff1680631c5e59ff14610067578063392e53cd146100d15780636013d5dc146100fe578063970f85ea14610140575b600080fd5b341561007257600080fd5b6100886004808035906020019091905050610163565b604051808373ffffffffffffffffffffffffffffffffffffffff1673ffffffffffffffffffffffffffffffffffffffff1681526020018281526020019250505060405180910390f35b34156100dc57600080fd5b6100e46101bd565b604051808215151515815260200191505060405180910390f35b341561010957600080fd5b61013e600480803573ffffffffffffffffffffffffffffffffffffffff169060200190919080359060200190919050506101d3565b005b341561014b57600080fd5b610161600480803590602001909190505061035d565b005b6000806001600084815260200190815260200160002060030160009054906101000a900473ffffffffffffffffffffffffffffffffffffffff16600160008581526020019081526020016000206004015491509150915091565b60008060009054906101000a900460ff16905090565b6101db610507565b60a06040519081016040528060016002600001540181526020016000815260200160026000015481526020018473ffffffffffffffffffffffffffffffffffffffff168152602001838152509050806000015160026001018190555080600260008201518160000155602082015181600101556040820151816002015560608201518160030160006101000a81548173ffffffffffffffffffffffffffffffffffffffff021916908373ffffffffffffffffffffffffffffffffffffffff1602179055506080820151816004015590505060026001600060026000015481526020019081526020016000206000820154816000015560018201548160010155600282015481600201556003820160009054906101000a900473ffffffffffffffffffffffffffffffffffffffff168160030160006101000a81548173ffffffffffffffffffffffffffffffffffffffff021916908373ffffffffffffffffffffffffffffffffffffffff16021790555060048201548160040155905050505050565b610365610507565b6001600083815260200190815260200160002060a060405190810160405290816000820154815260200160018201548152602001600282015481526020016003820160009054906101000a900473ffffffffffffffffffffffffffffffffffffffff1673ffffffffffffffffffffffffffffffffffffffff1673ffffffffffffffffffffffffffffffffffffffff16815260200160048201548152505090508060400151600160008360200151815260200190815260200160002060020181905550806020015160016000836040015181526020019081526020016000206001018190555081600260000154141561050357600160008260400151815260200190815260200160002060026000820154816000015560018201548160010155600282015481600201556003820160009054906101000a900473ffffffffffffffffffffffffffffffffffffffff168160030160006101000a81548173ffffffffffffffffffffffffffffffffffffffff021916908373ffffffffffffffffffffffffffffffffffffffff160217905550600482015481600401559050505b5050565b60a060405190810160405280600081526020016000815260200160008152602001600073ffffffffffffffffffffffffffffffffffffffff1681526020016000815250905600a165627a7a723058201cfbf486da1149c3f8a5c0f88dc0b92a08ed6c8a62b12260e568dab2f31c4f340029",
  "source": "pragma solidity ^0.4.18;\n\ncontract Counterpart {\n\tbool initialized;\n\tmapping (uint => node) nodes;\n\tnode root;\n\tstruct node {\n\t\tuint\tid;\n\t\tuint \tprev;\n\t\tuint \tnext;\n\t\taddress co;\n\t\tuint \tamount;\n\t}\n\tfunction Counterpart() public {initialized = true;}\n\tfunction isInitialized() public view returns (bool) { return initialized;}\n\tfunction addCounterpart(address co, uint amount) public {\n\t\tnode memory n = node(root.id+1, 0, root.id, co, amount);\n\t\troot.prev = n.id;\n\t\troot = n;\n\t\tnodes[root.id] = root;\n\t}\n\tfunction removeCounterpart(uint id) public {\n\t\tnode memory n = nodes[id];\n\t\tnodes[n.prev].next = n.next;\n\t\tnodes[n.next].prev = n.prev;\n\t\tif (root.id == id) {\n\t\t\troot = nodes[n.next];\n\t\t}\n\t}\n\tfunction getCounterpart(uint id) public view returns (address, uint) {\n\t\treturn (nodes[id].co, nodes[id].amount);\n\t}\n}",
  "sourcePath": "/Users/marat/work/spotnetio/contracts_mvp/contracts/CounterpartLL.sol",
  "compiler": {
    "name": "solc",
    "version": "0.4.19+commit.c4cbbb05.Emscripten.clang"
  },
  "schemaVersion": "2.0.0",
  "updatedAt": "2018-11-07T13:17:50.705Z"
}