{
  "contractName": "Spot",
  "abi": [
    {
      "constant": true,
      "inputs": [],
      "name": "QUOTE_TOKEN",
      "outputs": [
        {
          "name": "",
          "type": "address"
        }
      ],
      "payable": false,
      "stateMutability": "view",
      "type": "function"
    },
    {
      "inputs": [
        {
          "name": "quote_addr",
          "type": "address"
        }
      ],
      "payable": false,
      "stateMutability": "nonpayable",
      "type": "constructor"
    },
    {
      "constant": true,
      "inputs": [],
      "name": "getLenders",
      "outputs": [
        {
          "name": "",
          "type": "address[]"
        }
      ],
      "payable": false,
      "stateMutability": "view",
      "type": "function"
    },
    {
      "constant": true,
      "inputs": [],
      "name": "getLenderBalances",
      "outputs": [
        {
          "name": "",
          "type": "uint256[]"
        }
      ],
      "payable": false,
      "stateMutability": "view",
      "type": "function"
    },
    {
      "constant": false,
      "inputs": [
        {
          "name": "idx",
          "type": "int256"
        },
        {
          "name": "lender",
          "type": "address"
        },
        {
          "name": "amount",
          "type": "uint256"
        }
      ],
      "name": "lenderDeposit",
      "outputs": [],
      "payable": false,
      "stateMutability": "nonpayable",
      "type": "function"
    },
    {
      "constant": false,
      "inputs": [
        {
          "name": "idx",
          "type": "uint256"
        },
        {
          "name": "amount",
          "type": "uint256"
        },
        {
          "name": "agent_r",
          "type": "bytes32"
        },
        {
          "name": "agent_s",
          "type": "bytes32"
        },
        {
          "name": "agent_v",
          "type": "uint8"
        },
        {
          "name": "lender_r",
          "type": "bytes32"
        },
        {
          "name": "lender_s",
          "type": "bytes32"
        },
        {
          "name": "lender_v",
          "type": "uint8"
        },
        {
          "name": "sha",
          "type": "bytes32"
        }
      ],
      "name": "lenderWithdraw",
      "outputs": [],
      "payable": false,
      "stateMutability": "nonpayable",
      "type": "function"
    },
    {
      "constant": true,
      "inputs": [],
      "name": "getShortsellers",
      "outputs": [
        {
          "name": "",
          "type": "address[]"
        }
      ],
      "payable": false,
      "stateMutability": "view",
      "type": "function"
    },
    {
      "constant": true,
      "inputs": [],
      "name": "getShortsellerBalances",
      "outputs": [
        {
          "name": "",
          "type": "uint256[]"
        }
      ],
      "payable": false,
      "stateMutability": "view",
      "type": "function"
    },
    {
      "constant": false,
      "inputs": [
        {
          "name": "idx",
          "type": "int256"
        }
      ],
      "name": "shortsellerDeposit",
      "outputs": [],
      "payable": true,
      "stateMutability": "payable",
      "type": "function"
    },
    {
      "constant": false,
      "inputs": [
        {
          "name": "idx",
          "type": "uint256"
        },
        {
          "name": "amount",
          "type": "uint256"
        },
        {
          "name": "agent_r",
          "type": "bytes32"
        },
        {
          "name": "agent_s",
          "type": "bytes32"
        },
        {
          "name": "agent_v",
          "type": "uint8"
        },
        {
          "name": "shortseller_r",
          "type": "bytes32"
        },
        {
          "name": "shortseller_s",
          "type": "bytes32"
        },
        {
          "name": "shortseller_v",
          "type": "uint8"
        },
        {
          "name": "sha",
          "type": "bytes32"
        }
      ],
      "name": "shortsellerWithdraw",
      "outputs": [],
      "payable": false,
      "stateMutability": "nonpayable",
      "type": "function"
    },
    {
      "constant": true,
      "inputs": [],
      "name": "getAgreementsShortseller",
      "outputs": [
        {
          "name": "",
          "type": "address[]"
        }
      ],
      "payable": false,
      "stateMutability": "view",
      "type": "function"
    },
    {
      "constant": true,
      "inputs": [],
      "name": "getAgreementsLender",
      "outputs": [
        {
          "name": "",
          "type": "address[]"
        }
      ],
      "payable": false,
      "stateMutability": "view",
      "type": "function"
    },
    {
      "constant": true,
      "inputs": [],
      "name": "getAgreementsToken",
      "outputs": [
        {
          "name": "",
          "type": "uint256[]"
        }
      ],
      "payable": false,
      "stateMutability": "view",
      "type": "function"
    },
    {
      "constant": true,
      "inputs": [],
      "name": "getAgreementsAmountBase",
      "outputs": [
        {
          "name": "",
          "type": "uint256[]"
        }
      ],
      "payable": false,
      "stateMutability": "view",
      "type": "function"
    },
    {
      "constant": true,
      "inputs": [],
      "name": "getAgreementsRate",
      "outputs": [
        {
          "name": "",
          "type": "uint256[]"
        }
      ],
      "payable": false,
      "stateMutability": "view",
      "type": "function"
    },
    {
      "constant": true,
      "inputs": [],
      "name": "getAgreementsTimestamp",
      "outputs": [
        {
          "name": "",
          "type": "uint256[]"
        }
      ],
      "payable": false,
      "stateMutability": "view",
      "type": "function"
    },
    {
      "constant": false,
      "inputs": [
        {
          "name": "shortseller_idx",
          "type": "uint256"
        },
        {
          "name": "lender_idx",
          "type": "uint256"
        },
        {
          "name": "token",
          "type": "uint256"
        },
        {
          "name": "amountBase",
          "type": "uint256"
        },
        {
          "name": "rate",
          "type": "uint256"
        },
        {
          "name": "agent_r",
          "type": "bytes32"
        },
        {
          "name": "agent_s",
          "type": "bytes32"
        },
        {
          "name": "agent_v",
          "type": "uint8"
        },
        {
          "name": "shortseller_r",
          "type": "bytes32"
        },
        {
          "name": "shortseller_s",
          "type": "bytes32"
        },
        {
          "name": "shortseller_v",
          "type": "uint8"
        },
        {
          "name": "sha",
          "type": "bytes32"
        }
      ],
      "name": "CreateAgreement",
      "outputs": [],
      "payable": false,
      "stateMutability": "nonpayable",
      "type": "function"
    },
    {
      "constant": false,
      "inputs": [
        {
          "name": "agreement_idx",
          "type": "uint256"
        },
        {
          "name": "shortseller_idx",
          "type": "uint256"
        },
        {
          "name": "lender_idx",
          "type": "uint256"
        },
        {
          "name": "due_lender",
          "type": "uint256"
        },
        {
          "name": "due_shortseller",
          "type": "int256"
        },
        {
          "name": "agent_r",
          "type": "bytes32"
        },
        {
          "name": "agent_s",
          "type": "bytes32"
        },
        {
          "name": "agent_v",
          "type": "uint8"
        },
        {
          "name": "r",
          "type": "bytes32"
        },
        {
          "name": "s",
          "type": "bytes32"
        },
        {
          "name": "v",
          "type": "uint8"
        },
        {
          "name": "sha",
          "type": "bytes32"
        }
      ],
      "name": "DissolveAgreement",
      "outputs": [],
      "payable": false,
      "stateMutability": "nonpayable",
      "type": "function"
    }
  ],
  "bytecode": "0x6060604052341561000f57600080fd5b60405160208061171783398101604052808051906020019091905050806000806101000a81548173ffffffffffffffffffffffffffffffffffffffff021916908373ffffffffffffffffffffffffffffffffffffffff1602179055505061169c8061007b6000396000f3006060604052600436106100f1576000357c0100000000000000000000000000000000000000000000000000000000900463ffffffff1680630fdc43da146100f65780631ce52e4b1461016057806359652649146101ab5780635a32cd9b146101c35780636b15e3701461022d578063762320391461029757806378892cea14610337578063829268751461038c578063a2c68cdb146103f6578063a53952231461047b578063b11ca820146104e5578063b9009e731461056a578063d9b4d950146105d4578063e8c247a61461063e578063eb78cdef146106a8578063f20a01c014610712578063f9cd0ea1146107b2575b600080fd5b341561010157600080fd5b61010961081c565b6040518080602001828103825283818151815260200191508051906020019060200280838360005b8381101561014c578082015181840152602081019050610131565b505050509050019250505060405180910390f35b341561016b57600080fd5b6101a9600480803590602001909190803573ffffffffffffffffffffffffffffffffffffffff169060200190919080359060200190919050506108b0565b005b6101c16004808035906020019091905050610ac2565b005b34156101ce57600080fd5b6101d6610bb6565b6040518080602001828103825283818151815260200191508051906020019060200280838360005b838110156102195780820151818401526020810190506101fe565b505050509050019250505060405180910390f35b341561023857600080fd5b610240610c14565b6040518080602001828103825283818151815260200191508051906020019060200280838360005b83811015610283578082015181840152602081019050610268565b505050509050019250505060405180910390f35b34156102a257600080fd5b6103356004808035906020019091908035906020019091908035906020019091908035906020019091908035906020019091908035600019169060200190919080356000191690602001909190803560ff16906020019091908035600019169060200190919080356000191690602001909190803560ff1690602001909190803560001916906020019091905050610c72565b005b341561034257600080fd5b61034a610d27565b604051808273ffffffffffffffffffffffffffffffffffffffff1673ffffffffffffffffffffffffffffffffffffffff16815260200191505060405180910390f35b341561039757600080fd5b61039f610d4c565b6040518080602001828103825283818151815260200191508051906020019060200280838360005b838110156103e25780820151818401526020810190506103c7565b505050509050019250505060405180910390f35b341561040157600080fd5b6104796004808035906020019091908035906020019091908035600019169060200190919080356000191690602001909190803560ff16906020019091908035600019169060200190919080356000191690602001909190803560ff1690602001909190803560001916906020019091905050610de0565b005b341561048657600080fd5b61048e610f6d565b6040518080602001828103825283818151815260200191508051906020019060200280838360005b838110156104d15780820151818401526020810190506104b6565b505050509050019250505060405180910390f35b34156104f057600080fd5b6105686004808035906020019091908035906020019091908035600019169060200190919080356000191690602001909190803560ff16906020019091908035600019169060200190919080356000191690602001909190803560ff1690602001909190803560001916906020019091905050610fcb565b005b341561057557600080fd5b61057d611158565b6040518080602001828103825283818151815260200191508051906020019060200280838360005b838110156105c05780820151818401526020810190506105a5565b505050509050019250505060405180910390f35b34156105df57600080fd5b6105e76111b6565b6040518080602001828103825283818151815260200191508051906020019060200280838360005b8381101561062a57808201518184015260208101905061060f565b505050509050019250505060405180910390f35b341561064957600080fd5b610651611214565b6040518080602001828103825283818151815260200191508051906020019060200280838360005b83811015610694578082015181840152602081019050610679565b505050509050019250505060405180910390f35b34156106b357600080fd5b6106bb611272565b6040518080602001828103825283818151815260200191508051906020019060200280838360005b838110156106fe5780820151818401526020810190506106e3565b505050509050019250505060405180910390f35b341561071d57600080fd5b6107b06004808035906020019091908035906020019091908035906020019091908035906020019091908035906020019091908035600019169060200190919080356000191690602001909190803560ff16906020019091908035600019169060200190919080356000191690602001909190803560ff1690602001909190803560001916906020019091905050611306565b005b34156107bd57600080fd5b6107c5611537565b6040518080602001828103825283818151815260200191508051906020019060200280838360005b838110156108085780820151818401526020810190506107ed565b505050509050019250505060405180910390f35b6108246115cb565b60058054806020026020016040519081016040528092919081815260200182805480156108a657602002820191906000526020600020905b8160009054906101000a900473ffffffffffffffffffffffffffffffffffffffff1673ffffffffffffffffffffffffffffffffffffffff168152602001906001019080831161085c575b5050505050905090565b6000811115156108bf57600080fd5b7fffffffffffffffffffffffffffffffffffffffffffffffffffffffffffffffff83141561097857600180548060010182816108fb91906115df565b9160005260206000209001600084909190916101000a81548173ffffffffffffffffffffffffffffffffffffffff021916908373ffffffffffffffffffffffffffffffffffffffff160217905550506002805480600101828161095e919061160b565b9160005260206000209001600083909190915055506109a1565b8060028481548110151561098857fe5b9060005260206000209001600082825401925050819055505b6000809054906101000a900473ffffffffffffffffffffffffffffffffffffffff1673ffffffffffffffffffffffffffffffffffffffff166323b872dd8330846000604051602001526040518463ffffffff167c0100000000000000000000000000000000000000000000000000000000028152600401808473ffffffffffffffffffffffffffffffffffffffff1673ffffffffffffffffffffffffffffffffffffffff1681526020018373ffffffffffffffffffffffffffffffffffffffff1673ffffffffffffffffffffffffffffffffffffffff1681526020018281526020019350505050602060405180830381600087803b1515610aa157600080fd5b6102c65a03f11515610ab257600080fd5b5050506040518051905050505050565b600034111515610ad157600080fd5b7fffffffffffffffffffffffffffffffffffffffffffffffffffffffffffffffff811415610b8a5760038054806001018281610b0d91906115df565b9160005260206000209001600033909190916101000a81548173ffffffffffffffffffffffffffffffffffffffff021916908373ffffffffffffffffffffffffffffffffffffffff1602179055505060048054806001018281610b70919061160b565b916000526020600020900160003490919091505550610bb3565b34600482815481101515610b9a57fe5b9060005260206000209001600082825401925050819055505b50565b610bbe611637565b6004805480602002602001604051908101604052809291908181526020018280548015610c0a57602002820191906000526020600020905b815481526020019060010190808311610bf6575b5050505050905090565b610c1c611637565b6007805480602002602001604051908101604052809291908181526020018280548015610c6857602002820191906000526020600020905b815481526020019060010190808311610c54575b5050505050905090565b8860028b815481101515610c8257fe5b9060005260206000209001600082825401925050819055506000881315610cd0578760048c815481101515610cb357fe5b906000526020600020900160008282540192505081905550610cf9565b8760048c815481101515610ce057fe5b9060005260206000209001600082825403925050819055505b600060088d815481101515610d0a57fe5b906000526020600020900181905550505050505050505050505050565b6000809054906101000a900473ffffffffffffffffffffffffffffffffffffffff1681565b610d546115cb565b6001805480602002602001604051908101604052809291908181526020018280548015610dd657602002820191906000526020600020905b8160009054906101000a900473ffffffffffffffffffffffffffffffffffffffff1673ffffffffffffffffffffffffffffffffffffffff1681526020019060010190808311610d8c575b5050505050905090565b600088111515610def57600080fd5b8760028a815481101515610dff57fe5b90600052602060002090015410151515610e1857600080fd5b8760028a815481101515610e2857fe5b9060005260206000209001600082825403925050819055506000809054906101000a900473ffffffffffffffffffffffffffffffffffffffff1673ffffffffffffffffffffffffffffffffffffffff1663a9059cbb60018b815481101515610e8c57fe5b906000526020600020900160009054906101000a900473ffffffffffffffffffffffffffffffffffffffff168a6000604051602001526040518363ffffffff167c0100000000000000000000000000000000000000000000000000000000028152600401808373ffffffffffffffffffffffffffffffffffffffff1673ffffffffffffffffffffffffffffffffffffffff16815260200182815260200192505050602060405180830381600087803b1515610f4657600080fd5b6102c65a03f11515610f5757600080fd5b5050506040518051905050505050505050505050565b610f75611637565b6002805480602002602001604051908101604052809291908181526020018280548015610fc157602002820191906000526020600020905b815481526020019060010190808311610fad575b5050505050905090565b600088111515610fda57600080fd5b8760048a815481101515610fea57fe5b9060005260206000209001541015151561100357600080fd5b8760048a81548110151561101357fe5b9060005260206000209001600082825403925050819055506000809054906101000a900473ffffffffffffffffffffffffffffffffffffffff1673ffffffffffffffffffffffffffffffffffffffff1663a9059cbb60038b81548110151561107757fe5b906000526020600020900160009054906101000a900473ffffffffffffffffffffffffffffffffffffffff168a6000604051602001526040518363ffffffff167c0100000000000000000000000000000000000000000000000000000000028152600401808373ffffffffffffffffffffffffffffffffffffffff1673ffffffffffffffffffffffffffffffffffffffff16815260200182815260200192505050602060405180830381600087803b151561113157600080fd5b6102c65a03f1151561114257600080fd5b5050506040518051905050505050505050505050565b611160611637565b60088054806020026020016040519081016040528092919081815260200182805480156111ac57602002820191906000526020600020905b815481526020019060010190808311611198575b5050505050905090565b6111be611637565b600980548060200260200160405190810160405280929190818152602001828054801561120a57602002820191906000526020600020905b8154815260200190600101908083116111f6575b5050505050905090565b61121c611637565b600a80548060200260200160405190810160405280929190818152602001828054801561126857602002820191906000526020600020905b815481526020019060010190808311611254575b5050505050905090565b61127a6115cb565b60068054806020026020016040519081016040528092919081815260200182805480156112fc57602002820191906000526020600020905b8160009054906101000a900473ffffffffffffffffffffffffffffffffffffffff1673ffffffffffffffffffffffffffffffffffffffff16815260200190600101908083116112b2575b5050505050905090565b60008911151561131557600080fd5b6064888a81151561132257fe5b040260028c81548110151561133357fe5b9060005260206000209001600082825403925050819055506005805480600101828161135f91906115df565b9160005260206000209001600060038f81548110151561137b57fe5b906000526020600020900160009054906101000a900473ffffffffffffffffffffffffffffffffffffffff16909190916101000a81548173ffffffffffffffffffffffffffffffffffffffff021916908373ffffffffffffffffffffffffffffffffffffffff16021790555050600680548060010182816113fc91906115df565b9160005260206000209001600060018e81548110151561141857fe5b906000526020600020900160009054906101000a900473ffffffffffffffffffffffffffffffffffffffff16909190916101000a81548173ffffffffffffffffffffffffffffffffffffffff021916908373ffffffffffffffffffffffffffffffffffffffff1602179055505060078054806001018281611499919061160b565b916000526020600020900160008c90919091505550600880548060010182816114c2919061160b565b916000526020600020900160008b90919091505550600980548060010182816114eb919061160b565b916000526020600020900160008a90919091505550600a8054806001018281611514919061160b565b916000526020600020900160004290919091505550505050505050505050505050565b61153f6115cb565b60038054806020026020016040519081016040528092919081815260200182805480156115c157602002820191906000526020600020905b8160009054906101000a900473ffffffffffffffffffffffffffffffffffffffff1673ffffffffffffffffffffffffffffffffffffffff1681526020019060010190808311611577575b5050505050905090565b602060405190810160405280600081525090565b81548183558181151161160657818360005260206000209182019101611605919061164b565b5b505050565b81548183558181151161163257818360005260206000209182019101611631919061164b565b5b505050565b602060405190810160405280600081525090565b61166d91905b80821115611669576000816000905550600101611651565b5090565b905600a165627a7a723058203174acaaf4b58f0b6ee89130f51c9aca34a28e9f4c4f71193f8e50278ba06e140029",
  "source": "pragma solidity ^0.4.19;\n\nimport \"./ERC20.sol\";\nimport \"./math.sol\";\n\ncontract Spot is DSMath{\n\n\taddress \tpublic QUOTE_TOKEN;\n\n\tfunction Spot(address quote_addr) public {\n\t\tQUOTE_TOKEN = quote_addr;\n\t}\n\n\t/*****************************\n\t *\n\t *\tLENDER START\n\t *\n\t *****************************/\n\n\taddress[] \tlenders;\n\tuint[]\t\tlender_balances;\n\n\tfunction getLenders() public view returns (address[]) {\n\t\treturn lenders;\n\t}\n\tfunction getLenderBalances() public view returns (uint[]) {\n\t\treturn lender_balances;\n\t}\n\n\tfunction lenderDeposit(\n\t\tint \tidx, \n\t\taddress lender,\n\t\tuint\tamount\n\t) public {\n\t\t// validate\n\t\trequire(amount > 0);\n\n\t\t// update ledger\n\t\tif (idx == -1) {\n\t\t\tlenders.push(lender);\n\t\t\tlender_balances.push(amount);\n\t\t}\n\t\telse {\n\t\t\tlender_balances[uint(idx)] += amount;\n\t\t}\n\n\t\t// transfer funds\n\t\tERC20(QUOTE_TOKEN).transferFrom(\n\t\t\tlender, \n\t\t\tthis,\n\t\t\tamount\n\t\t);\n\t}\n\n\tfunction lenderWithdraw(\n\t\tuint \tidx, \n\t\tuint\tamount,\n\t\tbytes32 agent_r, \n\t\tbytes32 agent_s,\n\t\tuint8 \tagent_v,\n\t\tbytes32 lender_r, \n\t\tbytes32 lender_s,\n\t\tuint8 \tlender_v,\n\t\tbytes32 sha\n\t) public {\n\t\t// validate\n\t\trequire(amount > 0);\n\t\trequire(lender_balances[idx] >= amount);\n\t\t\n\t\t// update ledger\n\t\tlender_balances[idx] -= amount;\n\n\t\t// transfer funds\n\t\tERC20(QUOTE_TOKEN).transfer(\n\t\t\tlenders[idx], \n\t\t\tamount\n\t\t);\n\t}\n\n\t/*\n\t *\n\t *\tLENDER END\n\t *\n\t */\n\n\t/*****************************\n\t *\n\t *\tSHORTSELLER START\n\t *\n\t *****************************/\n\n\taddress[]\tshortsellers;\n\tuint[]\t\tshortseller_balances;\n\n\tfunction getShortsellers() public view returns (address[]) {\n\t\treturn shortsellers;\n\t}\n\tfunction getShortsellerBalances() public view returns (uint[]) {\n\t\treturn shortseller_balances;\n\t}\n\n\tfunction shortsellerDeposit(\n\t\tint \tidx\n\t) public payable {\n\t\t// validate\n\t\trequire(msg.value > 0);\n\n\t\t// update ledger\n\t\tif (idx == -1) {\n\t\t\tshortsellers.push(msg.sender);\n\t\t\tshortseller_balances.push(msg.value);\n\t\t}\n\t\telse {\n\t\t\tshortseller_balances[uint(idx)] += msg.value;\n\t\t}\n\t}\n\n\tfunction shortsellerWithdraw(\n\t\tuint \tidx, \n\t\tuint\tamount,\n\t\tbytes32 agent_r, \n\t\tbytes32 agent_s,\n\t\tuint8 \tagent_v,\n\t\tbytes32 shortseller_r, \n\t\tbytes32 shortseller_s,\n\t\tuint8 \tshortseller_v,\n\t\tbytes32 sha\n\t) public {\n\t\t// validate\n\t\trequire(amount > 0);\n\t\trequire(shortseller_balances[idx] >= amount);\n\n\t\t// update ledger\n\t\tshortseller_balances[idx] -= amount;\n\n\t\t// transfer funds\n\t\tERC20(QUOTE_TOKEN).transfer(\n\t\t\tshortsellers[idx], \n\t\t\tamount\n\t\t);\n\t}\n\n\t/*\n\t *\n\t *\tSHORTSELLER END\n\t *\n\t */\n\n\n\t/*****************************\n\t *\n\t *\tAGREEMENT START\n\t *\n\t *****************************/\n\n\taddress[]\tagreements_shortseller;\n\taddress[]\tagreements_lender;\n\tuint[]\t\tagreements_token;\n\tuint[]\t\tagreements_amountBase;\n\tuint[]\t\tagreements_rate;\n\tuint[]\t\tagreements_timestamp;\n\n\tfunction getAgreementsShortseller() public view returns (address[]) {\n\t\treturn agreements_shortseller;\n\t}\n\tfunction getAgreementsLender() public view returns (address[]) {\n\t\treturn agreements_lender;\n\t}\n\tfunction getAgreementsToken() public view returns (uint[]) {\n\t\treturn agreements_token;\n\t}\n\tfunction getAgreementsAmountBase() public view returns (uint[]) {\n\t\treturn agreements_amountBase;\n\t}\n\tfunction getAgreementsRate() public view returns (uint[]) {\n\t\treturn agreements_rate;\n\t}\n\tfunction getAgreementsTimestamp() public view returns (uint[]) {\n\t\treturn agreements_timestamp;\n\t}\n\n\tfunction CreateAgreement(\n\t\tuint\tshortseller_idx,\n\t\tuint\tlender_idx,\n\t\tuint\ttoken, \t\n\t\tuint\tamountBase,\n\t\tuint \trate,\n\t\tbytes32 agent_r, \n\t\tbytes32 agent_s,\n\t\tuint8 \tagent_v,\n\t\tbytes32 shortseller_r, \n\t\tbytes32 shortseller_s,\n\t\tuint8 \tshortseller_v,\n\t\tbytes32 sha\n\t) public {\n\t\t// validate \n\t\trequire(amountBase > 0);\n\n\t\t// update lender ledger\n\t\tlender_balances[lender_idx] -= amountBase / rate * 100;\n\n\t\tagreements_shortseller.push(shortsellers[shortseller_idx]);\n\t\tagreements_lender.push(lenders[lender_idx]);\n\t\tagreements_token.push(token);\n\t\tagreements_amountBase.push(amountBase);\n\t\tagreements_rate.push(rate);\n\t\tagreements_timestamp.push(now);\n\t}\n\n\tfunction DissolveAgreement(\n\t\tuint\tagreement_idx,\n\t\tuint\tshortseller_idx,\n\t\tuint\tlender_idx,\n\t\tuint\tdue_lender,\n\t\tint\t\tdue_shortseller,\n\t\tbytes32 agent_r, \n\t\tbytes32 agent_s,\n\t\tuint8 \tagent_v,\n\t\tbytes32 r, \n\t\tbytes32 s,\n\t\tuint8 \tv,\n\t\tbytes32 sha\n\t) public {\n\t\tlender_balances[lender_idx] += due_lender;\n\t\tif (due_shortseller > 0) {\n\t\t\tshortseller_balances[shortseller_idx] += uint(due_shortseller);\n\t\t}\n\t\telse {\n\t\t\tshortseller_balances[shortseller_idx] -= uint(due_shortseller);\n\t\t}\n\t\tagreements_amountBase[agreement_idx] = 0;\n\t}\n\n\t/*\n\t *\n\t *\tAGREEMENT END\n\t *\n\t */\n}\n",
  "sourcePath": "/Users/marat/work/spotnetio/contracts_mvp/contracts/Spot.sol",
  "compiler": {
    "name": "solc",
    "version": "0.4.19+commit.c4cbbb05.Emscripten.clang"
  },
  "schemaVersion": "2.0.0",
  "updatedAt": "2018-11-07T13:17:51.436Z"
}